:0300000002002CCF
:0100030032CA
:03000B0002008B65
:0100130032BA
:01001B0032B2
:0100230032AA
:10002B0032758160120042D2AF1202711203471275
:10003B0002F6120312013A12007412004F12005C06
:10004B001200822275305C75315C75325C75335CE5
:10005B0022D2A4D2A5D2A6D2A775380075392175A4
:10006B004020C200C201C20522438901758A667510
:10007B008CFCD28CD2A9227542E8754304D204229F
:10008B00C0E0C0D0C083C08211741200AF12035401
:10009B001200C53004051202B0C204D082D083D046
:1000AB00D0D0E032200412D5420FD543097543045A
:1000BB007542E8D204227542FF22E538B40015C21E
:1000CB00A0D2A1D2A2D2A3120214A2A41201D07563
:1000DB00380121CFB4010AA2A51201D07538022133
:1000EB00CFB4020AA2A61201D075380321CFB403F4
:1000FB000D120210A2A71201D075380421CFB4043F
:10010B0015D2A0C2A1D2A2D2A3120220A2A4120184
:10011B00D075380521CFB4050AA2A51201D07538C8
:10012B000621CFB4060AA2A61201D075380721CF3B
:10013B00B4070D120210A2A71201D075380821CFF7
:10014B00B40815D2A0D2A1C2A2D2A312022CA2A48F
:10015B001201D075380921CFB4090AA2A51201D01A
:10016B0075380A21CFB40A0AA2A61201D075380B32
:10017B0021CFB40B0D120210A2A71201D075380CAF
:10018B0021CFB40C15D2A0D2A1D2A2C2A312023895
:10019B00A2A41201D075380D21CFB40D0AA2A5125D
:1001AB0001D075380E21CFB40E0AA2A61201D0755C
:1001BB00380F21CFB40F08120210A2A71201D0756D
:1001CB00380021CF2220002A9202E539B4210CA25B
:1001DB00024031153985384102020FD53926A2026A
:1001EB00400A753921D200D20502020F753921025E
:1001FB00020F400675402002020FD54007D201C204
:10020B00057540202275800022900244E530C3948E
:10021B003093F58022900244E531C3943093F580FE
:10022B0022900244E532C3943093F580229002442D
:10023B00E533C3943093F58022FC60DAF266B6BEE8
:10024B00E0FEE6FFFFFFFFFFFFFFEE3E9C7A9E8E78
:10025B00BC6E0C700E1CAA2A3ACED60AB61E7C387F
:10026B00B862669200FF75305C75315C75325C75F7
:10027B00335C12029075305B75315B75325B753395
:10028B005B120290227536077535FF7534FFD53436
:10029B00FDD535F7D536F1227535557534FFD53487
:1002AB00FDD535F72230033A0530E530B43A00502E
:1002BB0001227530300531E531B43A005001227519
:1002CB0031300532E532B43A005001227532300537
:1002DB0033E533B43A0C75303075313075323075D7
:1002EB003330223001FDC200C201223000FDE54156
:1002FB0090030293F541223031323334353637389F
:10030B0039414243444546E541B4410612033202AA
:10031B00032FB4420612033502032FB44306120314
:10032B003802032F51EE22D20322C20322C20375DD
:10033B0030307531307532307533302275305B7536
:0F034B00315B75325775335322300502B295225C
:00000001FF
