:1000000075300075310075320075330075371C127C
:10001000001DD537FA75371C120087010FC2A0D218
:10002000A1D2A2D2A3900077E53093F58012006AA6
:10003000D2A0C2A1D2A2D2A3900077E53193F580DD
:1000400012006AD2A0D2A1C2A2D2A3900077E53258
:1000500093F58012006AD2A0D2A1D2A2C2A39000CE
:1000600077E53393F58012006A227535107534FFF9
:10007000D534FDD535F722FC60DAF266B6BEE0FE77
:10008000F6EE3E9C7A9E8E0530E530B410005001AD
:10009000227530000531E531B41000500122753170
:1000A000000532E532B410005001227532000533EC
:1000B000E533B410005001227530007531007532FF
:0500C000007533002271
:00000001FF
