:1000000075303075313075323075333075371C12BC
:10001000001DD537FA75371C1200AA010FC2A0D2F5
:10002000A1D2A2D2A3120056120086D2A0C2A1D29F
:10003000A2D2A3120062120086D2A0D2A1C2A2D282
:10004000A312006E120086D2A0D2A1D2A2C2A31225
:10005000007A12008622900093E530C3943093F525
:100060008022900093E531C3943093F58022900074
:1000700093E532C3943093F58022900093E533C327
:10008000943093F580227535107534FFD534FDD545
:1000900035F722FC60DAF266B6BEE0FEF6FFFFFF3F
:1000A000FFFFFFFFEE3E9C7A9E8E0530E530B43AAE
:1000B000005001227530300531E531B43A0050016D
:1000C000227531300532E532B43A005001227532E2
:1000D000300533E533B43A005001227530307531C4
:0800E000307532307533302217
:00000001FF
