:0300000002002CCF
:0100030032CA
:03000B0002007080
:0100130032BA
:01001B0032B2
:0100230032AA
:10002B003275816012004BD2AF12018C7530307576
:10003B0031307532307533301201AB1201CB0143C5
:10004B007538001200551200622275303B75313B3A
:10005B0075323B75333B22438901758A66758CFC7F
:10006B00D28CD2A922C0E0C0D0C083C08211621250
:10007B000086D082D083D0D0D0E032E538B40010E7
:10008B00C2A0D2A1D2A2D2A3120145753801214040
:10009B00B401057538022140B402057538032140BF
:1000AB00B403081201417538042140B40410D2A0E6
:1000BB00C2A1D2A2D2A31201517538052140B405B9
:1000CB00057538062140B406057538072140B4077D
:1000DB00081201417538082140B40810D2A0D2A1F2
:1000EB00C2A2D2A312015D7538092140B40905756E
:1000FB00380A2140B40A0575380B2140B40B08129D
:10010B00014175380C2140B40C10D2A0D2A1D2A25F
:10011B00C2A312016975380D2140B40D0575380E57
:10012B002140B40E0575380F2140B40F0312014165
:10013B0075380021402275800022900175E530C38F
:10014B00943093F58022900175E531C3943093F58B
:10015B008022900175E532C3943093F58022900193
:10016B0075E533C3943093F58022FC60DAF266B602
:10017B00BEE0FEF600FFFFFFFFFFFFEE3E9C7A9E08
:10018B008E75303B75313B75323B75333B1201AB92
:10019B0075303A75313A75323A75333A1201AB22F2
:1001AB007536077535FF7534FFD534FDD535F7D565
:1001BB0036F1227535557534FFD534FDD535F7221B
:1001CB000530E530B43A005001227530300531E589
:1001DB0031B43A005001227531300532E532B43A70
:1001EB00005001227532300533E533B43A0C7530CB
:0B01FB00307531307532307533302222
:00000001FF
