:0300000002002CCF
:0100030032CA
:03000B000200A050
:0100130032BA
:01001B0032B2
:0100230032AA
:10002B0032758160120063D2AF12024F75303B758F
:10003B00313A75323A75333A3000FDE54190005351
:10004B0093F5301202C90143303132333435363730
:10005B00383941424344454612006D12007A120072
:10006B00922275303B75313B75323B75333B22D257
:10007B00A4D2A5D2A6D2A775380075392175402018
:10008B00C200C201C20322438901758A66758CFCCA
:10009B00D28CD2A922C0E0C0D0C083C082119212F0
:1000AB0002D11200B9D082D083D0D0D0E032E53863
:1000BB00B40015C2A0D2A1D2A2D2A3120208A2A44C
:1000CB001201C475380121C3B4010AA2A51201C4DF
:1000DB0075380221C3B4020AA2A61201C4753803F3
:1000EB0021C3B4030D120204A2A71201C475380474
:1000FB0021C3B40415D2A0C2A1D2A2D2A31202145E
:10010B00A2A41201C475380521C3B4050AA2A51215
:10011B0001C475380621C3B4060AA2A61201C47520
:10012B00380721C3B4070D120204A2A71201C4752C
:10013B00380821C3B40815D2A0D2A1C2A2D2A312EF
:10014B000220A2A41201C475380921C3B4090AA262
:10015B00A51201C475380A21C3B40A0AA2A612015A
:10016B00C475380B21C3B40B0D120204A2A71201E4
:10017B00C475380C21C3B40C15D2A0D2A1D2A2C223
:10018B00A312022CA2A41201C475380D21C3B40D05
:10019B000AA2A51201C475380E21C3B40E0AA2A679
:1001AB001201C475380F21C3B40F08120204A2A7A1
:1001BB001201C475380021C32220002A9202E539AE
:1001CB00B4210CA20240311539853841020203D506
:1001DB003926A202400A753921D200D2030202034A
:1001EB007539210202034006754020020203D540F7
:1001FB0007D201C20375402022758000229002387D
:10020B00E530C3943093F58022900238E531C394E6
:10021B003093F58022900238E532C3943093F58009
:10022B0022900238E533C3943093F58022FC60DAD8
:10023B00F266B6BEE0FEF600FFFFFFFFFFFFEE3EED
:10024B009C7A9E8E75303B75313B75323B75333BDB
:10025B0012026E75303A75313A75323A75333A127D
:10026B00026E227536077535FF7534FFD534FDD513
:10027B0035F7D536F1227535557534FFD534FDD5A7
:10028B0035F7220530E530B43A0050012275303095
:10029B000531E531B43A005001227531300532E5B4
:1002AB0032B43A005001227532300533E533B43A9B
:1002BB000C7530307531307532307533302230017A
:0C02CB00FDC200C20122300302B29522E5
:00000001FF
